{
  "contractName": "First",
  "abi": [
    {
      "constant": false,
      "inputs": [
        {
          "internalType": "uint256",
          "name": "_amount",
          "type": "uint256"
        },
        {
          "internalType": "string",
          "name": "_client",
          "type": "string"
        },
        {
          "internalType": "string",
          "name": "_title",
          "type": "string"
        },
        {
          "internalType": "string",
          "name": "_types",
          "type": "string"
        }
      ],
      "name": "addTransaction",
      "outputs": [],
      "payable": false,
      "stateMutability": "nonpayable",
      "type": "function"
    },
    {
      "constant": true,
      "inputs": [],
      "name": "viewAllTransactions",
      "outputs": [
        {
          "internalType": "uint256[]",
          "name": "",
          "type": "uint256[]"
        }
      ],
      "payable": false,
      "stateMutability": "view",
      "type": "function"
    },
    {
      "constant": true,
      "inputs": [
        {
          "internalType": "uint256",
          "name": "_transId",
          "type": "uint256"
        }
      ],
      "name": "getTransactionDetails",
      "outputs": [
        {
          "internalType": "string",
          "name": "",
          "type": "string"
        },
        {
          "internalType": "uint256",
          "name": "",
          "type": "uint256"
        },
        {
          "internalType": "uint256",
          "name": "",
          "type": "uint256"
        },
        {
          "internalType": "string",
          "name": "",
          "type": "string"
        },
        {
          "internalType": "string",
          "name": "",
          "type": "string"
        }
      ],
      "payable": false,
      "stateMutability": "view",
      "type": "function"
    }
  ],
  "bytecode": "0x608060405234801561001057600080fd5b50610b2f806100206000396000f3fe608060405234801561001057600080fd5b50600436106100415760003560e01c80630fa683d3146100465780632d686b20146101d35780637c49c26114610232575b600080fd5b6100726004803603602081101561005c57600080fd5b8101908080359060200190929190505050610425565b60405180806020018681526020018581526020018060200180602001848103845289818151815260200191508051906020019080838360005b838110156100c65780820151818401526020810190506100ab565b50505050905090810190601f1680156100f35780820380516001836020036101000a031916815260200191505b50848103835286818151815260200191508051906020019080838360005b8381101561012c578082015181840152602081019050610111565b50505050905090810190601f1680156101595780820380516001836020036101000a031916815260200191505b50848103825285818151815260200191508051906020019080838360005b83811015610192578082015181840152602081019050610177565b50505050905090810190601f1680156101bf5780820380516001836020036101000a031916815260200191505b509850505050505050505060405180910390f35b6101db61075b565b6040518080602001828103825283818151815260200191508051906020019060200280838360005b8381101561021e578082015181840152602081019050610203565b505050509050019250505060405180910390f35b6104236004803603608081101561024857600080fd5b81019080803590602001909291908035906020019064010000000081111561026f57600080fd5b82018360208201111561028157600080fd5b803590602001918460018302840111640100000000831117156102a357600080fd5b91908080601f016020809104026020016040519081016040528093929190818152602001838380828437600081840152601f19601f8201169050808301925050505050505091929192908035906020019064010000000081111561030657600080fd5b82018360208201111561031857600080fd5b8035906020019184600183028401116401000000008311171561033a57600080fd5b91908080601f016020809104026020016040519081016040528093929190818152602001838380828437600081840152601f19601f8201169050808301925050505050505091929192908035906020019064010000000081111561039d57600080fd5b8201836020820111156103af57600080fd5b803590602001918460018302840111640100000000831117156103d157600080fd5b91908080601f016020809104026020016040519081016040528093929190818152602001838380828437600081840152601f19601f820116905080830192505050505050509192919290505050610890565b005b6060600080606080856001818154811061043b57fe5b906000526020600020906006020160020160009054906101000a900473ffffffffffffffffffffffffffffffffffffffff1673ffffffffffffffffffffffffffffffffffffffff163373ffffffffffffffffffffffffffffffffffffffff16146104a457600080fd5b6104ac610a09565b600188815481106104b957fe5b90600052602060002090600602016040518060c001604052908160008201548152602001600182015481526020016002820160009054906101000a900473ffffffffffffffffffffffffffffffffffffffff1673ffffffffffffffffffffffffffffffffffffffff1673ffffffffffffffffffffffffffffffffffffffff168152602001600382018054600181600116156101000203166002900480601f0160208091040260200160405190810160405280929190818152602001828054600181600116156101000203166002900480156105d55780601f106105aa576101008083540402835291602001916105d5565b820191906000526020600020905b8154815290600101906020018083116105b857829003601f168201915b50505050508152602001600482018054600181600116156101000203166002900480601f0160208091040260200160405190810160405280929190818152602001828054600181600116156101000203166002900480156106775780601f1061064c57610100808354040283529160200191610677565b820191906000526020600020905b81548152906001019060200180831161065a57829003601f168201915b50505050508152602001600582018054600181600116156101000203166002900480601f0160208091040260200160405190810160405280929190818152602001828054600181600116156101000203166002900480156107195780601f106106ee57610100808354040283529160200191610719565b820191906000526020600020905b8154815290600101906020018083116106fc57829003601f168201915b50505050508152505090508060a00151816000015182602001518360600151846080015184945081915080905096509650965096509650505091939590929450565b6060806000803373ffffffffffffffffffffffffffffffffffffffff1673ffffffffffffffffffffffffffffffffffffffff168152602001908152602001600020546040519080825280602002602001820160405280156107cb5781602001602082028038833980820191505090505b509050600080905060008090505b600180549050811015610887573373ffffffffffffffffffffffffffffffffffffffff166001828154811061080a57fe5b906000526020600020906006020160020160009054906101000a900473ffffffffffffffffffffffffffffffffffffffff1673ffffffffffffffffffffffffffffffffffffffff16141561087a578083838151811061086557fe5b60200260200101818152505081806001019250505b80806001019150506107d9565b50819250505090565b60016040518060c001604052808681526020014281526020013373ffffffffffffffffffffffffffffffffffffffff1681526020018481526020018381526020018581525090806001815401808255809150509060018203906000526020600020906006020160009091929091909150600082015181600001556020820151816001015560408201518160020160006101000a81548173ffffffffffffffffffffffffffffffffffffffff021916908373ffffffffffffffffffffffffffffffffffffffff1602179055506060820151816003019080519060200190610977929190610a55565b506080820151816004019080519060200190610994929190610a55565b5060a08201518160050190805190602001906109b1929190610a55565b505050506000803373ffffffffffffffffffffffffffffffffffffffff1673ffffffffffffffffffffffffffffffffffffffff1681526020019081526020016000206000815480929190600101919050555050505050565b6040518060c001604052806000815260200160008152602001600073ffffffffffffffffffffffffffffffffffffffff1681526020016060815260200160608152602001606081525090565b828054600181600116156101000203166002900490600052602060002090601f016020900481019282601f10610a9657805160ff1916838001178555610ac4565b82800160010185558215610ac4579182015b82811115610ac3578251825591602001919060010190610aa8565b5b509050610ad19190610ad5565b5090565b610af791905b80821115610af3576000816000905550600101610adb565b5090565b9056fea265627a7a723158205e14026afc55005e50c42e69129464b0ebc808e9596dd8c874203e68ca4fc31964736f6c63430005100032",
  "source": "pragma solidity >0.5.0 <= 0.6.0;\r\n\r\ncontract First {\r\n\r\n    struct Transaction {\r\n        uint amount;\r\n        uint date;\r\n        address owner;\r\n        string title;\r\n        string types;\r\n        string client;\r\n    }\r\n    mapping(address => uint) ownerTotalTransactions;\r\n    Transaction[] transactions;\r\n\r\n    function addTransaction(uint _amount, string memory _client, string memory _title, string memory _types) public {\r\n        transactions.push(Transaction(_amount, block.timestamp, msg.sender, _title, _types, _client));\r\n        ownerTotalTransactions[msg.sender]++;\r\n    }\r\n\r\n    modifier onlyOwnerOf(uint _transId) {\r\n        require(msg.sender == transactions[_transId].owner);\r\n        _;\r\n    }\r\n\r\n    function viewAllTransactions() external view returns(uint[] memory) {\r\n        \r\n        uint[] memory result = new uint[](ownerTotalTransactions[msg.sender]);\r\n        uint counter = 0;\r\n        for(uint i = 0; i < transactions.length; i++) {\r\n            if(transactions[i].owner == msg.sender) {\r\n                result[counter] = i;\r\n                counter++;\r\n            }\r\n        }\r\n        return result;\r\n    }\r\n\r\n    function getTransactionDetails(uint _transId) public view onlyOwnerOf(_transId) returns(string memory, uint, uint, string memory, string memory) {\r\n        Transaction memory t = transactions[_transId];\r\n        return (t.client, t.amount, t.date, t.title, t.types);\r\n    }\r\n}",
  "sourcePath": "D:/Uni_Work/PIAIC/Expense Tracker/contracts/First.sol",
  "compiler": {
    "name": "solc",
    "version": "0.5.16+commit.9c3226ce.Emscripten.clang"
  },
  "schemaVersion": "3.3.2",
  "updatedAt": "2020-12-20T18:20:48.734Z",
  "networkType": "ethereum",
  "devdoc": {
    "methods": {}
  },
  "userdoc": {
    "methods": {}
  }
}